:020000040000FA
:06000000B1EF7EF01200DA
:06000800F1ED4CF01200C6
:06001800ECEF50F01200B5
:06002A000B003EFE000089
:10003000E400000018000000A9FD0000FF0200001D
:100040000100000035FE0000D80300000900000098
:100050002DFE0000860400000800000027FE0000BE
:100060009A0400000600000014FE0000EC020000EC
:10007000130000000CFE0000F10300000800000067
:1000800005FE0000F903000007000000FDFD000070
:10009000E903000008000000BCFD0000450400006A
:1000A00041000000BAFD0000B104000002000000A1
:1000B00089A802D089981200898812000401AF6BC8
:1000C00012000401AF6B12000401AF6BB06B1200A1
:1000D0000401AF6B1200F4EC0BF0040EE126EFEC20
:1000E0000BF010C127F011C128F012C129F013C183
:1000F0002AF029EC59F0010A1BE010C12CF011C1C3
:100100002DF012C12EF013C12FF028C127F029C104
:1001100028F02AC129F02BC12AF00CEC57F027C097
:10012000CAF128C0CBF129C0CCF12AC0CDF107D04B
:100130000101CA6BCB6B800ECC6F3F0ECD6F080EEA
:1001400018EC0BF0010102AB06D0DFEC0AF06DEC0D
:100150000CF0EDEC0AF078EC0BF001E0010EE66E2D
:1001600050EC0BF0E9EC0AF0A2EC0CF026C083F0A6
:1001700027C084F028C085F029C086F078EC0BF009
:100180000CE00F0E13EC0AF027C08CF328C08DF39F
:1001900029C08EF32AC08FF30BD00F0E3EEC0CF06B
:1001A00026C08CF327C08DF328C08EF329C08FF3AF
:1001B0008CC3E6FF8DC3E6FF8EC3E6FF8FC3E6FF69
:1001C00065EC2EF07BEC0CF026C080F327C081F3A9
:1001D00028C082F329C083F3EFEC0BF054C127F061
:1001E00055C128F056C129F057C12AF029EC59F021
:1001F000010A1FE060C126F061C127F062C128F04A
:1002000063C129F05CEC56F045EC0CF054C12CF0C5
:1002100055C12DF056C12EF057C12FF00CEC57F000
:1002200027C0C6F128C0C7F129C0C8F12AC0C9F14A
:1002300007D00101C66BC76B800EC86F3F0EC96F38
:1002400078EC0BF00CE01C0E13EC0AF027C0A0F3C6
:1002500028C0A1F329C0A2F32AC0A3F30BD01C0E1F
:100260003EEC0CF026C0A0F327C0A1F328C0A2F3F7
:1002700029C0A3F3A0C3E6FFA1C3E6FFA2C3E6FF24
:10028000A3C3E6FFC1EC2EF07BEC0CF026C090F38C
:1002900027C091F328C092F329C093F3A0C32CF098
:1002A000A1C32DF0A2C32EF0A3C32FF0A4C327F047
:1002B000A5C328F0A6C329F0A7C32AF039EC59F04A
:1002C000010A02E1010E01D0000E0301B897E8B067
:1002D000B8878CC32CF08DC32DF08EC32EF08FC346
:1002E0002FF088C327F089C328F08AC329F08BC375
:1002F0002AF039EC59F0010A02E1010E01D0000E9A
:1003000003010291E8B002810301B8510301080B17
:1003100002E0029301D00283030101ADB5D00301D5
:10032000005103010295400B01E0028503010051D9
:1003300003010495400B01E00485190E18EC0BF045
:10034000DFEC0AF0EFEC0BF000C027F074EC0CF0DF
:1003500039EC59F0010A09E1DFEC0AF02C6A2D6A48
:10036000800E2E6EBF0EEDEC0AF0006A016A026A82
:10037000400E036ED9EC0CF0EECF27F0EECF28F054
:10038000EECF29F0EFCF2AF000C02CF001C02DF005
:1003900002C02EF02F6E0CEC57F02AC0EDFF29C0E2
:1003A000EDFF28C0EDFF27C0EFFFD9EC0CF0EECF3A
:1003B00008F0EECF09F0EECF0AF0EFCF0BF02C6A89
:1003C0002D6A800E2E6E470E2F6E08C027F009C0D2
:1003D00028F00AC029F00BC02AF05FEC57F027C0C4
:1003E00004F028C005F029C006F02AC007F0CAC1F1
:1003F0002CF0CBC12DF0CCC12EF0CDC12FF0C6C159
:1004000027F0C7C128F0C8C129F0C9C12AF00CECF7
:1004100057F027C00CF028C00DF029C00EF02AC0FC
:100420000FF027C02CF028C02DF029C02EF02AC0D4
:100430002FF060EC0CF05FEC57F045EC0CF02C6A00
:100440002D6A2E6A3F0E2F6E76EC56F0F2EC58F0C5
:1004500026C0C7F027C0C8F028C0C9F029C0CAF01C
:1004600000012934000E291809E6D880000EC7556E
:10047000000EC855010EC955000ECA5505E2C76BDE
:10048000C86B010EC96FCA6B040EE15C02E2E16A3F
:10049000E552CAEF0BF0030104BF05D0048FE66AF2
:1004A00092EC23F0E55217DE78EC0BF001E0010E40
:1004B000F9EC0BF001011A0EB16FACEF0AF0030179
:1004C000049F040EE66E92EC23F0E5520301FB6BF1
:1004D0000301010EFC6F78EC0BF006E00E0E13EC3E
:1004E0000AF0AFEC0BF002D02EEC0BF0CBEC0AF0E4
:1004F00078EC0BF00CE01D0E13EC0AF027C0A4F30F
:1005000028C0A5F329C0A6F32AC0A7F302D039EC6E
:100510000BF0A4C3E6FFA5C3E6FFA6C3E6FFA7C38F
:10052000E6FF44EC0BF0D7DD78EC0BF001E0010EB8
:10053000F9EC0BF00101060EB16FACEF0AF004010B
:10054000AF51040A5DE0070A56E0010A3AE0030AE7
:1005500003E0010A65E158D00001CB51800B62E055
:10056000B8EC0BF00F0E001801E101501AE00E0E6E
:10057000001801E101500DE00C0E001801E10150DE
:1005800006E00A0E001801E1015019E015D090DDD7
:1005900016D089EC0BF0A7EC27F00101010E0B6FD0
:1005A0000ED00401020EAF6FCBEC27F00101020E5A
:1005B0000B6FACEC0AF003D00001810EFC6FAFEFC3
:1005C0000AF00001CB51400B10E0DDEC0BF00AE12A
:1005D000015008E10101020E0B6F0101120EB06F14
:1005E00024EC0BF00401030E10D0CB513F0B1AE1A9
:1005F0000401040E0AD0D9EC0BF014E1040104D07C
:10060000D9EC0BF004E10401010EAF6F120071ECA4
:100610000BF005E1015006E10401010EAF6F12007D
:10062000010EAF6F1200F4EC0BF00C0EE12604018A
:10063000AF51040A01E126D3070A01E119D3010AE7
:1006400001E1C0D2030A04E0010A01E023D322D36E
:100650000001CB51800B01E122D3AFEC0AF0C1ECD9
:100660000BF00EE1010105B106D00CEC0BF0010E10
:10067000EB6F020102D00201010EEA6F0101059148
:100680003F0E0001CB150401AD6FAE6FE8500D0AAF
:1006900001E1FCD1160A01E1D9D10F0A01E197D19C
:1006A000070A01E17AD1010A01E14FD1030A01E110
:1006B0002ED10C0A01E129D1010A01E124D1040A59
:1006C00001E102D1380A01E1DED0090A01E1B4D02A
:1006D000010A01E195D0270A01E18ED0010A01E16A
:1006E00086D0190A6BE0010A53E02C0A40E0010AA7
:1006F00030E0070A24E0020A1DE0320A17E0060A89
:1007000001E05CD2B051010B01E156D20001CD51A4
:1007100001E052D2CFEC0BF0E9BEEA6807EC0BF037
:100720002D0EEF6EE66EEAEC70F08ED1B0B144D2D1
:10073000BFDC42D2ACEC0AF0010EE66E03D0ACECAA
:100740000AF0E66A0A0E86EC0AF0E66AE4EC0BF0C0
:100750007ED25AEC0CF001E0010E006E8050080BC6
:1007600001E0010ED4EC0BF0010EE66E0CD05AEC59
:100770000CF001E0010E006E8050080B01E0010E4C
:10078000D4EC0BF0E66A0B0E55EC0AF0E66A2AD0C0
:100790004EEC0CF001E0010E006E8050080B01E001
:1007A000010ED4EC0BF0E66A130E55EC0AF0010EC4
:1007B000E66EE8EC0BF0ACEC0AF016D0ACEC0AF00C
:1007C0004EEC0CF001E0010E006E8050080B01E0D1
:1007D000010ED4EC0BF0010EE66E130E55EC0AF090
:1007E000010EE66EE8EC0BF00401020E57D289EC24
:1007F0000BF00101010EE7D00101020E0B6F1ED1BB
:1008000009EC0CF003E090EC0AF002D07CEC0BF069
:10081000BAEC0AF00E0EA9EC0CF0190E69EC0CF013
:1008200003E09CEC0BF002D00401B091C1EC0CF0A1
:1008300000AE1CD001681AD009EC0CF003E090EC7B
:100840000AF002D07CEC0BF0BAEC0AF00F0EA9EC27
:100850000CF01A0E69EC0CF003E09CEC0BF002D0EB
:100860000401B091C1EC0CF000BE016800C0E6FFCD
:1008700001C0E6FF4EEC64F0E552E5520101040EC2
:100880000B6F04010BD20001CC51010B13E1ACEC56
:100890000AF03F0EF21600018F6B906B916B926B1A
:1008A000C00EF212E66AE66AE66AE66A100E59ECD3
:1008B0000BF082D189EC0BF00101050E0B6F0A0ED3
:1008C00086EC0AF0E66A1AD00001CC51010B0CE16B
:1008D000ACEC0AF03F0EF2160001AE6BAF6BB06BE2
:1008E000B16BC00EF21268D189EC0BF00101050E5C
:1008F0000B6F020E86EC0AF0010EE66E8AEC27F012
:10090000E552E552A1D0C7DD57D1D9DD55D101015E
:1009100005A152D1040E0101CE5D07E162EC0BF09E
:10092000450E69EC0CF046E148D0050ECE5D05E1C0
:1009300012EC0BF0010ECF6F75D0160ECE5D03E1F9
:1009400066EC6DF07BD0020E7CD0010105A134D1A4
:10095000040E0101CE5D05E1FEEC26F0B4EC24F0BE
:100960002BD1050ECE5D0CE162EC0BF0250E69EC8F
:100970000CF003E09CEC0BF024D00401B09121D0EA
:10098000160ECE5D08E178EC0BF001E0010EE66E8C
:1009900087EC6DF059D0030E54D0010105A10CD1A4
:1009A000040E0101CE5D11E162EC0BF0340E69EC36
:1009B0000CF003E09CEC0BF002D00401B0910301B9
:1009C000049F0101040E0B6FF7D0040E3AD0010111
:1009D00005A1F2D0040E0101CE5D1EE10301FB6B07
:1009E0000301FC6B78EC0BF006E00E0E13EC0AF042
:1009F000AFEC0BF002D02EEC0BF0CBEC0AF039ECA4
:100A00000BF026C0E6FF27C0E6FF28C0E6FF29C09E
:100A1000E6FF44EC0BF0D0D0050ECE5D06E112EC03
:100A20000BF0CF6B92EC0BF0C7D0160ECE5D08E149
:100A300078EC0BF001E0010EF9EC0BF0010E01D0A7
:100A4000050EE66EE8EC1AF0E552B6D00101B06B87
:100A5000000E0201E76EEA19E8AE02D0EA3503D0D3
:100A6000E750D880EA5505E2DEEC0CF0EBC2EAF282
:100A700002D0010EEA6F0201EB6B0101040E0B6F55
:100A8000BDEC0CF0E8A0F2D0B081F0D00201EA5148
:100A900001E192D00201DB51060A39E0030A2DE0A0
:100AA000010A22E0070A17E0010A0CE0030A01E04C
:100AB00080D038EC0AF0E9BEEA6803EC0AF000AE38
:100AC00074D023D038EC0AF0E9BEEA6803EC0AF0EF
:100AD00000AE6BD01AD038EC0AF0E9BEEA6803EC3D
:100AE0000AF000AE62D011D080EC0CF0E9BEEA68EA
:100AF00003EC0AF000AE59D008D085EC0CF0E9BE4A
:100B0000EA6803EC0AF000AE50D001684ED0CF0E78
:100B1000E66E000EE66ED950040FE66E000EDA2087
:100B2000E66E2BEC42F0E552E552E552E552040E3A
:100B3000DBCFCFF2050EDBCFD0F2060EDBCFD1F24A
:100B4000070EDBCFD2F2A50EE66E020EE66E07D0E0
:100B5000E6C2FBFFE5C2FAFF0201E451F96EF8DFDD
:100B6000E552E552E0C22CF0E1C22DF0E2C22EF0D7
:100B7000E3C22FF0CFC227F0D0C228F0D1C229F0B3
:100B8000D2C22AF00CEC57F027C000F028C001F0C8
:100B900029C002F02AC003F0CEC2E9FFEA6AE9BE2A
:100BA000EA68FEEC0AF000BE016868EC0BF093EC1A
:100BB0000CF00001430EFC6F040158D00001810EBF
:100BC000FC6F6DD00001CB51400B46E0DDEC0BF02B
:100BD00001E1015039E0170E001801E1015026E053
:100BE000160E001801E101501BE03A0E001801E159
:100BF00001500CE03B0E00182CE101502AE10101EC
:100C000005BF27D0058F010EE66E05D0010105BF97
:100C100020D0058FE66A000EE66EE66AE66A11D01D
:100C2000010105BF16D0058FE66A06D0010105BF98
:100C300010D0058F010EE66E130E86EC0AF0010E41
:100C4000E66EE4EC0BF005D00101020E0B6F010122
:100C5000058F0401030E22D0CB513F0B20E101018F
:100C600005AF03D0059F24EC0BF00401040E16D051
:100C7000D9EC0BF014E1010105AF0CD0059F24EC79
:100C80000BF008D0D9EC0BF005E071EC0BF007E1AC
:100C9000015005E1010109850401010EAF6F0C0E41
:100CA000E15C02E2E16AE552CAEF0BF0F4EC0BF012
:100CB000080EE1260401AF51040A01E141D3070AFD
:100CC00001E137D3010A01E118D3030A04E0010A64
:100CD00001E042D33BD30001CB51800B01E140D373
:100CE000CBC0AEF4AFEC0AF0C1EC0BF00BE10101AC
:100CF00005B103D00CEC0BF0EB6B0201010EEA6FB7
:100D0000010105913F0E0001CB150401AD6FE850C4
:100D10000D0A01E1D1D1160A01E1B8D10F0A01E1B2
:100D2000A2D1070A01E190D1010A01E17ED1030AB3
:100D300001E16BD10C0A01E15FD1010A01E159D156
:100D4000100A01E12BD1060A01E1F3D0150A01E1F5
:100D50009CD0310A41E01E0A13E0010A11E0030AA7
:100D60000FE0010A0DE0070A0BE0010A09E0030A9F
:100D700007E0010A05E00F0A03E0010A01E0B9D229
:100D8000B051010B01E1B3D28CEC0BF0E8AE02D014
:100D9000E73402D0E750CD5D01E3A9D2CFEC0BF0F0
:100DA000E9BEEA689BEC0CF0E9BEEA6807EC0BF0E0
:100DB000EF6A8CEC0BF0E8AE02D0CD3503D0E750F3
:100DC000D880CD5506E2CD07080EE66EEAEC70F04D
:100DD000E552ADC4E6FFDED0090E0201DB5D24E181
:100DE000010EE66EDFC2E6FFBCEC70F0E552E552A4
:100DF0000001CF5108E0CF6B66DB030EF626000E34
:100E0000F722F82203D0010ECF6F5DDB0900F5CF8A
:100E1000E6FF0900F5CFE6FF0800F5CFE6FF6AEC34
:100E200071F0E552E552B8D00401B051010B01E177
:100E30005ED2B051020B01E05AD28CEC0BF0E8AE5E
:100E400002D0E73402D0E750CD5D01E350D2040177
:100E5000B083ADC4E6FFEAEC70F0E5520001CFECE0
:100E60000BF0E9BEEA689BEC0CF0E9BEEA68CFDB68
:100E7000EF6A8CEC0BF0E8AE02D0E73402D0E7501A
:100E8000CD5D01E234D2CD0732D2B051010B4BE03F
:100E9000000E0001E76ECD19E8AE02D0CD3503D0CB
:100EA000E750D880CD553FE201010651020B3BE1EE
:100EB0000001CD05E96EEA6AE9BEEA68A8DBEF50F9
:100EC0002E0802E10401B0930001CE510001CD5D76
:100ED00020E10001CD51CD07006E000EE76E001835
:100EE000E8AE02D0003403D0E750D880005406E2C8
:100EF000080EE66EEAEC70F0E552EBD7CD2BCDC0D4
:100F0000E9FFEA6AE9BEEA6882DBEF6A0401B093AE
:100F1000EED1CD07CDC0E9FFEA6AE9BEEA6877DB2A
:100F2000EF6A080E36D0010106A3E1D10001810E5F
:100F3000DDD1010106A103D0D0C2EAF251D006A34F
:100F400018D097EC0CF0E9BEEA685EDBEFCFDBFF70
:100F5000DB06DBCF00F0003406E30201DF05E76EBD
:100F6000040EE7CFDBFF97EC0CF0E9AE36D0EA6871
:100F700034D00401B051010B01E1B9D10001CD51D0
:100F800001E0B5D1CFEC0BF0E9BEEA6840DB2D0EF5
:100F9000EF6EE66EEAEC70F0E552A9D1010106A110
:100FA00003D0CFC2EAF21CD006A31DD097EC0CF000
:100FB000E9BEEA6829DBEFCFDBFFDB2A0201DF5164
:100FC000F36E040EDBCFF4FFF350F45C02E3040E87
:100FD000DB6A97EC0CF0E9BEEA6816DBDBCFEFFFCB
:100FE00093EC0CF084D10401B0B181D158EC00F045
:100FF0007ED14BEC02F005D05FEC02F00201FEEC7A
:101000000BF00101030E0B6F72D10201CE5101E012
:101010006ED1EAC2EBF2CFC2EAF203EC0CF0CFC21F
:10102000E6FFC5EC0CF02DE12ED00201CE5101E01F
:101030005ED1EAC2EBF2D0C2EAF2E5DBD0C2E6FF53
:10104000C5EC0CF020E01DD00201CE5101E04FD1E3
:10105000EAC2EBF2D1C2EAF2D6DBD1C2E6FFC5ECBE
:101060000CF011E00ED00201CE5101E040D1EAC2F5
:10107000EBF2D2C2EAF2C7DBD2C2E6FFC5EC0CF05B
:1010800002E05ADB34D10401B09131D15EDBE8AE2D
:1010900002D0EA3503D0E750D880EA5506E2EBC229
:1010A000EAF20201010EEB6F01D0A8DBBDEC0CF0FF
:1010B000E8A03DD1B0813BD10201EA5101E117D155
:1010C0000201DB51090A01E1EBD0010A01E17ED006
:1010D0000E0A2FE0030A25E0010A1CE0070A13E0CC
:1010E000010A0AE0030A01E0FFD0C2D9E9BEEA68BA
:1010F0008AD900AE68D01BD0BBD9E9BEEA6883D9D3
:1011000000AE61D014D0B4D9E9BEEA687CD900AE93
:101110005AD00DD0F5DBE9BEEA6875D900AE53D0E0
:1011200006D0F3DBE9BEEA686ED900AE4CD00168A8
:101130004AD0CF0EE66E000EE66ED9CFE6FFDACFCC
:10114000E6FF2BEC42F0E552E552E552E552DFCFE7
:10115000CFF2010EDBCFD0F2020EDBCFD1F2030EC5
:10116000DBCFD2F2A50EE66E020EE66E07D0E6C227
:10117000FBFFE5C2FAFF0201E451F96EF8DFE55228
:10118000E552E0C22CF0E1C22DF0E2C22EF0E3C243
:101190002FF0CFC227F0D0C228F0D1C229F0D2C29E
:1011A0002AF00CEC57F027C000F028C001F029C04D
:1011B00002F02AC003F0CEC2E9FFEA6AE9BEEA689B
:1011C0001DDA00BE016884DAAEDB8ED0DADB00BE49
:1011D00001687EDA050ECFC2DBFF060ED0C2DBFF50
:1011E000070ED1C2DBFFA3DBE9BEEA682ADBEFCF43
:1011F00003F0046A056A0E0E2C6E2D6A2E6A03C077
:1012000027F088DBD950050FE96EDACFEAFFEE5000
:101210002424006EEE502520016EEE502620026E32
:10122000050E00C0DBFF060E01C0DBFF070E02C08B
:10123000DBFF050EDBCFF6FF060EDBCFF7FF070E59
:10124000DBCFF8FF0A0EF626000EF722F82209007F
:10125000F5CF04F00900F5CF05F00900F5CF06F051
:101260000800F5CF07F0E0C22CF0E1C22DF0E2C299
:101270002EF0E3C22FF098DB0201DE51040DF3CF14
:10128000E9FFF4CFEAFF0C0EE926010EEA2227C09F
:10129000EEFF65DBDE51E66EE66A2AEC64F022D0F2
:1012A000CFC0CFF23FDA3FDB0001CF510EE0A50EF9
:1012B000E66E020EE66E07D0E6C2FBFFE5C2FAFF5D
:1012C0000201E451F96EF8DF0DD0A50EE66E020EB4
:1012D000E66E07D0E9C2FBFFE8C2FAFF0201E75160
:1012E000F96EF8DFE552E5520001430EFC6F040190
:1012F0001ED00001810EFC6F33D0040EE66E07ECA9
:1013000076F0E552F350F4102BE00401AE51006E7C
:10131000016A00500001CB1906E10150CC1903E12C
:101320000401030E17D0010105BF059F0401040E3F
:1013300011D03FDA15E1010105AF08D0059F06D0B5
:1013400038DA04E0CED90CE101500AE10101098547
:101350000401010EAF6F04D0010EAF6F01010985CA
:10136000080EE15C02E2E16AE55214D20401AF51D9
:10137000040A38E0050A03E0010A42E136D0000120
:10138000CB51800B3FE0F4D91B0E001801E1015056
:101390000EE00C0E001801E1015006E00A0E0018E4
:1013A00001E101501DE019D058EC00F019D0CDD961
:1013B000E8AE02D0EA3503D0E750D880EA5506E21D
:1013C000EBC2EAF20201010EEB6F01D017DAD5DAB7
:1013D000E8B0B081040EAF6F03D00001810EFC6F46
:1013E000AFEF0AF0E6D904E10401010EAF6F12007D
:1013F00078D905E1015006E10401010EAF6F12003A
:10140000010EAF6F12001DDACFC2EEFFD0C2EEFFA9
:10141000D1C2EEFFD2C2EEFFC1EF0CF0F4D9EAC2A6
:10142000E6FF37EF0CF02ADA26C000F027C001F003
:1014300028C002F029C003F050DA2F6E26C027F032
:1014400053DA5FEF57F0D950040FE96E05DA7ADA14
:10145000080E26C0DBFF090E27C0DBFF0A0E28C0DE
:10146000DBFF0B0E29C0DBFF01010251080B12004C
:101470008FDA54EC3BF0E552E552F3CFCFF2F4CFE4
:10148000D0F20201D16BD26B97EF0CF0E552E5522E
:10149000040E26C0DBFF050E27C0DBFF060E28C0AA
:1014A000DBFF070E29C0DBFF120060DAF3CF01F08B
:1014B000F4CF02F0F3CFE6FFF4CFE6FFD950080FE8
:1014C000E96E2CEF0CF06F0E006E320E016E000E06
:1014D000026EDEC203F0046A056A060E2C6E2D6AE7
:1014E0002E6ADEC227F016DA25C004F026C005F009
:1014F00000502424F36E01502520F46E0250262063
:10150000F86EF4CFF7FFF3CFF6FF12002FDAF3CF28
:1015100000F0F4CF01F0F3CFE6FFF4CFE6FF1200C6
:10152000040EDBCF04F0050EDBCF05F0060EDBCF9B
:1015300006F0070EDBCF07F0D0D92F6ED4EF0CF0FA
:10154000E552E55226C0CFF227C0D0F228C0D1F232
:1015500029C0D2F297EF0CF0010EE66E31D2320EB6
:10156000E66EE66A040EE66E18EC76F0E552E55299
:10157000E5521200040E00C0DBFF050E01C0DBFFC8
:10158000060E02C0DBFF070E03C0DBFFD950040FBD
:10159000E96E2CEF0CF088C3E6FF89C3E6FF8AC32F
:1015A000E6FF8BC3E6FF65EC2EF0A5D926C07CF3E1
:1015B00027C07DF328C07EF329C07FF31200F9D93C
:1015C000EECF00F0EECF01F0EECF02F0EFCF03F060
:1015D0001200D9CFE9FF2CEF0CF02F6E00C027F0DE
:1015E00083D95FEC57F027C0DEFF28C0DEFF29C09B
:1015F000DEFF2AC0DDFFDD52DD52120022D900C01D
:10160000EEFFADD9C1EF0CF01CD9040E1200CF0EC5
:10161000E926000EEA221200F6D8010EE66E27D95E
:1016200002011200F0D8410EE66E21D9020112002B
:1016300025D926C0DEFF27C0DEFF28C0DEFF29C077
:10164000DDFFDD52DD521200E66A72EC33F0E55246
:10165000010EE66E72EC33F0E55212000E0E0ED95A
:1016600026C088F327C089F328C08AF329C08BF3EA
:1016700012001D0E03D926C0A4F327C0A5F328C06D
:10168000A6F329C0A7F31200C1EC2EF034D926C06E
:1016900094F327C095F328C096F329C097F312005E
:1016A000CAC1E6FFCBC1E6FFCCC1E6FFCDC1E6FF74
:1016B0001200E66EE66A28EC64F0006E060EE15E4B
:1016C000005012007BD90201010EEB6F02011200E3
:1016D00000C0E6FF01C0E6FF2AEC64F0E552E552E7
:1016E0001200400ECB15006E016A400E0018120069
:1016F00001010251200B1200040EDBCF00F0050E99
:10170000DBCF01F0060EDBCF02F0070EDBCF03F0DC
:101710001200060EE66E54D10001CE510001E76EB4
:10172000CD191200A50EE66E020EE66E8AEC64F08C
:10173000E552E552C4EF64F00401B081CDC0CEF0B3
:1017400012000001CD6F005012000101B06B0101C9
:1017500006910693000E0201E76EEA19120027C0F7
:1017600088F328C089F329C08AF32AC08BF31200BA
:101770000401040EAF6F3F0E0001CB15006E016A2D
:101780001200010109950401020EAF6FFF0E020164
:10179000EA5D1200E16EE552E7CFD9FF1200CD51AC
:1017A000CD2BE96EEA6A12000018E81CE66EE66AC4
:1017B00012000001CB513F0B12003F0ECB15006E03
:1017C000016A0F0E00181200BAEC32F07BEF0CF039
:1017D00080EC30F0036E0A0EE15E035012002C6ABA
:1017E0002D6A2E6A2F6A1200D9CFE6FFE1CFD9FF0A
:1017F0001200E66E69EC6DF0E5521200010EEA6F20
:101800000201EB6B1200C4D8A50EE66E020EE66E66
:101810001200D4D83F0EF2168FC0DFFF010E90C029
:10182000DBFF020E91C0DBFF030E92C0DBFFC00E98
:10183000F212CFDE2FEC2EF0E552E55227DE78EFE4
:101840000BF0D890E936EA36D890E936EA360C0E35
:10185000E926010EEA221200DACFEAFFEECFE6FF18
:10186000EECFE6FFEECFE6FFEFCFE6FF12007EEC15
:1018700037F0006E050EE15E00501200E66EE66A7B
:101880001CEC64F0E552E552120027C000F028C0BD
:1018900001F029C002F02AC003F01200160E7DD814
:1018A000C6C1E6FFC7C1E6FFC8C1E6FFC9C1E6FF82
:1018B00023EF0AF051DE0C0E70D8F2DE23EF0AF0AF
:1018C00004C027F005C028F006C029F007C02AF0A0
:1018D0001200EA6FA3DDA1EF0BF0330E2C6E2D6E1C
:1018E000CB0E2E6E410E120001C028F002C029F06E
:1018F00003C02AF01200E552E552E552E55212000B
:1019000047D8C8EC3BF0A0EF0AF042D89AEC3BF085
:10191000A0EF0AF004C028F005C029F053EC58F0FD
:1019200024C003F012007ADD0001CD6F1200CEC298
:10193000E9FFEA6A12006BDEADC4EFFFCDC0E9FF3C
:10194000EA6A12000FEC30F0006E090EE15E005002
:101950001200AFDE0201010EEB6F0201120001C0A6
:10196000EEFF02C0EEFF03C0EEFF1200E66EE66A75
:101970001EEC64F0E552E552120050DD0401B09116
:101980001200CEC200F0016A120071DFA1EF0BF06D
:10199000CF0EE66E000EE66E1200E66EE66A1CECF6
:1019A00064F074DDE66A12008BDF0CEC57F045EF53
:1019B0000CF0D9CFE9FFDACFEAFF1200E66A00D0D7
:0819C000E8EC1AF0E5521200F8
:0819C8002020202020452D4CB9
:1019D00045414453435245572020202056657220EC
:1019E0005049433138463436383520312E3130684D
:1019F00000000101010100000000000000000000E3
:101A00000000000000803F88D10088D10020202005
:101A100043686F6F7365204F7074696F6E2020206C
:101A20002052554E20202020202020202020202021
:101A3000534554555000000D010102000000000004
:101A400000000000000000000000803F88D10088F6
:101A5000D100202020202020534554555020202004
:101A60002020202020205350444C20464C47532017
:101A700043525353204C4453435200000C291C0939
:101A800000000000000000000000000000000080D6
:101A90003F88D10088D1002043524F535320534CEC
:101AA0004944452053435245572020545049202053
:101AB0005049544348202020204D4554524943006A
:101AC000000B2001350000000000000000000000B5
:101AD00000000000803F88D10088D1004D6F746FF6
:101AE00072205820536C6577205261746520202045
:101AF00020202020202020202020202020202020E6
:101B00002020202000020000000000000000204EE5
:101B1000000004020700000000803F88D10088D147
:101B200000204C45414453435245572050495443AB
:101B30004820202020545049202050495443482018
:101B40002020204D45545249430000060707080055
:101B50000000000000000000000000000000803FC6
:101B600088D10088D10020496D70657269616C2050
:101B70004C656164736372657720202020202020EB
:101B80002020202020202020202054504920000107
:101B90001000000000000000000000000608150012
:101BA000000000803FECD100FAD10020496D706543
:101BB0007269616C204C6561647363726577205053
:101BC00069746368202020202020202020202020ED
:101BD00020202000010000000000000000000000A4
:101BE000000606372E000000803F9AD100B0D100D9
:101BF000204D6574726963204C656164736372651E
:101C00007720202050697463682020202020202025
:101C1000202020206D6D2020000100000000000029
:101C200000000000000006062700003333CB418887
:101C3000D10088D1002020202020204D4F544F5229
:101C4000205A2020202020202052415445202020AE
:101C50002020202020202020504152414D00001300
:101C60000101120000000000000000000000000060
:101C70000000803F88D10088D1002020204D6F7463
:101C80006F72205A2053746570732020202020200A
:101C9000202020202020202053746570732F52654F
:101CA00076200007D0070000C8000000A00F000049
:101CB00006013700000000803F88D10088D1002055
:101CC000496D70657269616C205820417869732094
:101CD0002020202020202020202020202020202004
:101CE0002020545049202000121400000000000061
:101CF000000000000006081500000000803FECD145
:101D000000FAD10020205370696E646C6520456E26
:101D1000636F64696E67202020202020202020200F
:101D2000202050756C7365732F5265760005010095
:101D30000000010000000100000001060100000099
:101D400000803F88D10088D1002052554E2050415C
:101D500052414D455445525320202020205A2020E6
:101D6000202058202054415045522020554E49549F
:101D70005300000E26255000000000000000000067
:101D8000000000000000803F88D10088D1005A2068
:101D900052554E20504152414D45544552532020FA
:101DA00020205455524E20544852442020504F5326
:101DB0002020204A4F470000103418160000000071
:101DC0000000000000000000000000803F88D100FB
:101DD00088D1002020202020544852454144494EBB
:101DE00047202020202020545049202020205049E6
:101DF00054434820204D455452494300003C3B3B4E
:101E00003D00000000000000000000000000000095
:101E1000803F88D10088D100202020202054757276
:101E20006E2050697463682020202020202020200C
:101E300020202020202020202020202020202020A2
:101E40000006000000000000000000000000060284
:101E50004724000000803F9AD100B0D1004D6F743C
:101E60006F72205A20416363656C65726174696F9B
:101E70006E20202020202020202020202020202014
:101E80002020202020000900000000010000002088
:101E90004E000004020700000000803F88D1008847
:101EA000D1004D4F544F52205A20504152414D4580
:101EB0005445525320204143434C20505443482022
:101EC000424B4C5348205354505300001105170AFD
:101ED0000000000000000000000207000000008079
:101EE0003F88D10088D1004D4F544F52205A204D89
:101EF0004F56452052415445202020534C455720F1
:101F000044454C41592020202020204D4F5645006B
:101F100000141B0115000000000000000000020773
:101F200000000000803F88D10088D1004D6F746FA1
:101F300072205A20536C65772052617465202020EE
:101F40002020202020202020202020202020202091
:101F500020202020000A0000000000000000204E89
:101F6000000004020700000000803F88D10088D1F3
:101F7000004D6F746F72205A204D6F76652052614C
:101F800074652020202020202020202020202020B8
:101F9000202020202020202020000B000000000016
:101FA000000000204E000004020700000000803FF7
:101FB00088D10088D10041646A7374205A204A6F26
:101FC000672044697374616E63652020202020209F
:101FD0002020202020202020202020202020000C35
:101FE000000000000000000000000000060236248F
:101FF000000000803F9AD100B0D100204C656164A0
:102000007363726577204261636B6C617368204211
:1020100061636B6C617368202020202020202020C9
:102020002020200008000000000000000001000047
:1020300000060A3624000000803F9AD100B0D1008B
:102040005A20424547494E2F454E4420504F532079
:1020500020202020424547494E20202020202020BB
:1020600020202020454E442000001901011A0000C4
:1020700000000000000000023600000000803F88E1
:10208000D10088D1005A20426567696E20506F7375
:102090006974696F6E2020202020202020202020BD
:1020A00020202020202020202020202020000E0082
:1020B00000000000000000000000000602372400BD
:1020C0000000803F9AD100B0D1005A20456E6420B4
:1020D000506F736974696F6E2020202020202020AB
:1020E00020202020202020202020202020202020F0
:1020F0002020000F00000000000000000000000091
:1021000006023724000000803F9AD100B0D100546D
:10211000696D652054696C6C205374657020506F34
:10212000776572446F776E202020202020202020A9
:10213000207820312E3053001100000000000000F4
:1021400000FF00000001080300000000803F88D16C
:102150000088D1002020202020204D4F544F5220B5
:10216000582020202020202052415445202020208B
:1021700020202020202020504152414D00003101DC
:10218000011E000000000000000000080300000025
:1021900000803F88D10088D1004D6F746F72205845
:1021A000204D6F766520526174652020202020200C
:1021B000202020202020202020202020202020201F
:1021C000200013E02E000000000000204E0000045C
:1021D000010500000000803F88D10088D1004D4FEC
:1021E000544F52205820504152414D45544552536E
:1021F00020204143434C205054434820424B4C53F1
:1022000048205354505300001F0343210000000096
:102210000000000000020700000000803F88D1009D
:1022200088D1004D4F544F52205820416363656C54
:1022300065726174696F6E2020202020202020208C
:1022400020202020202020202020200014282300CF
:102250000001000000204E00000401050000000005
:10226000803F88D10088D10020496D706572696116
:102270006C205820417869732020202050697463B5
:102280006820202020202020202020202020202006
:10229000001200000000000000000000000006081E
:1022A0003731000000803F9AD100B0D100202020BB
:1022B0004D6F746F72205820537465707320202006
:1022C000202020202020202020202053746570739F
:1022D0002F52657620001540060000C8000000A0BF
:1022E0000F000003020600000000803F88D1008834
:1022F000D10043726F737320536C6964652042652B
:1023000067696E20202020202020202020202020EF
:1023100020202020202020202020001D0000000060
:1023200000000000000000000608372400000080C4
:102330003F9AD100B0D10043726F737320536C6920
:10234000646520526574726374642020202020200C
:10235000202020202020202020202020202020009D
:102360001C0000000000000000000000000608370C
:1023700024000000803F9AD100B0D100544852445C
:10238000204F52205455524E20554E495453202030
:102390004D6574726963204D6F64652069732020F8
:1023A0002020202000FF0D0DFFFF00000000000096
:1023B000000009000500110000803F88D10088D18D
:1023C00000205441504552204D454E552043484F22
:1023D0004943452020444953542020414E474C2036
:1023E000444952204C495354200000422E2F4800AB
:1023F0000000000000000000083724000000803FBB
:102400009AD100B0D100582052554E20504152412F
:102410004D455445525320202020504F5320204CEE
:102420004F432020202020202020204A4F4700001A
:1024300027520128000000000000000000080700EB
:10244000000000803F88D10088D1005820424547D5
:10245000494E2F454E4420504F53202020202042EB
:102460004547494E202020202020524554524143C8
:102470005445440000220101230000000000000038
:102480000000020600000000803F88D10088D100D3
:1024900041646A73742058204A6F672044697374DA
:1024A000616E636520202020202020202020202015
:1024B0002020202020202020001600000000000006
:1024C00000000000000006023624000000803F9A51
:1024D000D100B0D1005345542050524F4752414D86
:1024E00020464C4147532020205343524C205E2C21
:1024F000762020544F47474C4520272E2700FF3E8B
:1025000033FFFF0000000000000000000206000092
:102510000000803F88D10088D100494E5645525472
:10252000204553544F50204C494E45202020494EC1
:102530005645525445442049532020202020202035
:10254000202000FF2B44FFFF0000000000000000DF
:1025500009000200110000803F88D10088D10049A5
:102560004E56455254204C494D49542053574954D6
:10257000434820494E564552544544204953202053
:102580002020202020202000FF2C2AFFFF00000018
:10259000000000000009000300110000803F88D106
:1025A0000088D100555345204F4E424F41524420A0
:1025B000535445505045522053544550204D4F548C
:1025C0004F522049532020202020202000FF2D2B77
:1025D000FFFF0000000000000000090004001100DF
:1025E00000803FFED2001ED3005A2041584953209C
:1025F000444952454354494F4E2020202020494E03
:102600005645525445442049532020202020202064
:102610002000FF302CFFFF00000000000000000938
:10262000020000110000803F88D10088D1002020E6
:10263000544150455220414E474C452020202020F7
:102640002020414E474C4520495320202020202067
:102650002020202020200019100000000000000091
:1026600000000000060A3600000000803F46D2004D
:10267000A0D2005461706572206D6F76656D656ED5
:102680007420746F2020206865616473746F636BBD
:10269000206973202020202020202000FF0000FF40
:1026A000FF0000000000000000090206010E00000B
:1026B000803F88D10088D100582041584953204498
:1026C0004952454354494F4E2020202020494E5620
:1026D00045525445442049532020202020202020CA
:1026E00000FF3A2DFFFF000000000000000009037A
:1026F0000000110000803F88D10088D1004D4F5468
:102700004F522058204D4F564520524154452020CD
:1027100020534C45572020202020202020202020FE
:10272000204D4F564500000401011D00000000002F
:1027300000000000020700000000803F88D10088F0
:10274000D1002020204155544F4D41544943205839
:102750002020202020204D4F56454D454E542049E5
:102760005320202020202020202000FF4156FFFF62
:1027700000000000000000000903040011000080B8
:102780003F88D10088D10020202053455249414C38
:1027900020504F52542020202020204543484F20D5
:1027A000434841525320495320202020202020001C
:1027B000FF2939FFFF0000000000000000090100B0
:1027C00000110000803F88D10088D1002054485279
:1027D00045414420504152414D45544552532020DB
:1027E00050544348204450544820414E474C2050B8
:1027F0004153532000000F534036000000000000FA
:10280000000000000000000000803F88D10088D157
:1028100000204D65747269632058204178697320E7
:102820002020202020506974636820202020202050
:1028300020202020206D6D202000120000000000CC
:102840000000000000000006062700003333CB41E3
:1028500088D10088D100205448524541442050413D
:10286000535320504152414D20204652535420454D
:10287000414348204C415354205350524E4700008E
:10288000454647370000000000000000000000003F
:10289000000000803F88D10088D100537072696EBB
:1028A00067205061737320436F756E742020202061
:1028B0002020202020202020205061737365732069
:1028C00020202000210000000000000000FF000088
:1028D0000001060200000000803F88D10088D1007E
:1028E00020204D4F525345205441504552204C49D1
:1028F0005354202020202020202020202020202071
:10290000202020202020202000033B310000000058
:10291000000000000000080057190800004041882E
:10292000D10088D100582041584953205354455074
:1029300020504F4C202020202020494E56455254F4
:102940004544204953202020202020202000FF3310
:102950003AFFFF0000000000000000090301001121
:102960000000803F88D10088D1005A204158495347
:10297000205354455020504F4C20202020202049E7
:102980004E564552544544204953202020202020B3
:10299000202000FF3930FFFF000000000000000091
:1029A00009020100110000803F88D10088D1002079
:1029B0002020202054687265616420506974636827
:1029C0002020202020202020202020202020202007
:1029D00020696E63682020001A00000000000000DB
:1029E000000000000006043700000000803F90D186
:1029F0000090D1002020202020546872656164205E
:102A00005450492020202020202020202020202039
:102A1000202020202020202020202020001A0A0012
:102A20000000000000000000000006021600000088
:102A300000803FECD100FAD10020202020205468F3
:102A40007265616420506974636820202020202012
:102A50002020202020202020202020206D6D2020DC
:102A600020001A0000000000000000000000000626
:102A7000022700003333CB4190D10090D100555351
:102A80004520434F4D504F554E4420464F52202035
:102A90002020202020544852454144494E47204997
:102AA00053202020202000FF5629FFFF00000000B7
:102AB0000000000009030500110000803F88D100DC
:102AC00088D100204465707468206F662054687255
:102AD00065616420202020446570746820202020D7
:102AE000202020202020202020202000224B000019
:102AF000000000000000000000060A37240000006B
:102B0000803F9AD100B0D1002020205468726561C6
:102B10006420416E676C652020202020202020202A
:102B200020202020202044656772656573202020C6
:102B3000001B1E0000000000000000000000060254
:102B40001500000000803F88D10088D1002054414A
:102B5000504552205455524E494E472020202020A7
:102B6000202020205441504552494E4720204953AF
:102B7000202020202000FF4432FFFF000000000042
:102B800000000009030600110000803F88D1008882
:102B9000D1002020205461706572696E67205261F7
:102BA00074696F2020202020202020202020202039
:102BB000222070657220466F6F74001900000000BB
:102BC0000000000000000000060059000000004066
:102BD0004188D10088D10020202058204178697395
:102BE000204261636B6C61736820204261636B6C8F
:102BF0006173682020202020202020202020200019
:102C000017000000000000000001000000060A3666
:102C100024000000803F9AD100B0D1002020204540
:102C20004C454354524F4E49432020202020202021
:102C300048414C464E555420495320202020202006
:102C40002020202000FF2A41FFFF0000000000009C
:102C5000000009020500110000803F88D10088D1E2
:102C6000002046697273742050617373204465704C
:102C70007468202020204465707468202020202063
:102C8000202020202020202020001E4B00000000BB
:102C900000000000000000060A3724000000803F0A
:102CA0009AD100B0D10020456163682050617373F0
:102CB000204465707468202020202044657074686A
:102CC0002020202020202020202020202020001F25
:102CD000000000000000000000000000060A372489
:102CE000000000803F9AD100B0D100204C61737485
:102CF0002050617468204465707468202020202072
:102D0000446570746820202020202020202020206E
:102D100020202000204B00000000000000000000E8
:102D200000060A3724000000803F9AD100B0D1008D
:102D3000505245444546494E454420544150455221
:102D4000532020204D525345204A414342204153B5
:102D50005254204353544D20000038494A4B000040
:102D600000000000000000000000000000803F881C
:102D7000D10088D100204A41434F42202054415085
:102D80004552204C49535420202020202020202030
:102D900020202020202020202020202020000DABDB
:102DA0003100000000000000000000080057190971
:102DB0000000404188D10088D1004153534F525404
:102DC0004544205441504552204C49535420202022
:102DD00020202020202020202020202020202020F3
:102DE0002020001829320000000000000000000030
:102DF00008005719050000404188D10088D10043E0
:102E00005553544F4D495A4544205441504552530F
:102E100020202055535231205553523220555352C1
:102E20003320555352342000004C4D4E4F000000CB
:102E3000000000000000000000000000803F88D17A
:102E40000088D100437573746F6D20546170657292
:102E5000202020202020202055736572205431200E
:102E600020202020202020202020202000230000BF
:102E700000000000000000000000060A37240000E7
:102E800000803F08D20038D200437573746F6D2004
:102E90005461706572202020202020202055736509
:102EA000722054322020202020202020202020208A
:102EB00020002400000000000000000000000006C8
:102EC0000A3724000000803F08D20038D200437542
:102ED00073746F6D20546170657220202020202053
:102EE000202055736572205433202020202020207C
:102EF00020202020202000250000000000000000ED
:102F000000000000060A3724000000803F08D200BD
:102F100038D200437573746F6D20546170657220F0
:102F2000202020202020205573657220543420203A
:102F3000202020202020202020202000260000000B
:102F4000000000000000000000060A372400000016
:102F5000803F08D20038D200554E4954205041528B
:102F6000414D455445525320202020204D45545278
:102F70004943202020202020202020202053464D7F
:102F8000000024FFFF5100000000000000000000CE
:102F90000000000000803F88D10088D100535049D4
:102FA0004E444C4520444953504C41592020202048
:102FB0002053464D204D6F646520697320202020EA
:102FC000202020202000FF0D0DFFFF00000000004A
:102FD00000000009000600110000803F88D1008831
:102FE000D100546F6F6C2054697020506F736974F6
:102FF000696F6E202020204469616D6574657220C0
:103000002020202020202020202000270000000059
:103010000000000000000000060A372400000080C5
:103020003F9AD100B0D10020202044455054482080
:103030004D454E5520202020202020444550544806
:10304000204D554C5420202020202043414C43004B
:10305000003F54555500000000000000000002072A
:1030600000000000803F88D10088D1004465707462
:10307000682050746368204D756C7469706C65725B
:103080002020202020202020202020202020202040
:103090002020202000280000000000000000000088
:1030A0000000060A5700000000803F88D10088D148
:1030B00000202043616C63756C6174656420446515
:1030C0007074682020202020202020202020202014
:1030D00020202020202020202000220000000000AE
:1030E00000000000000000060A3724000000803FB6
:1030F000C4D100D8D10042524F414348204D4F44E3
:1031000045204D4F56454D454E54204953202020D3
:10311000202020202020202020202020202000FFF0
:10312000323EFFFF00000000000000000900070021
:10313000110000803F88D10088D1004D4F52534587
:103140002023302000C9E51F3F4D4F525345202317
:103150003120008A3C193F4D4F52534520233220E5
:1031600000EF72193F4D4F52534520233320009CEE
:10317000331A3F4D4F5253452023342000F88D1F02
:103180003F4D4F5253452023352000A4AA213F4DE7
:103190004F5253452023362000992A203F4D4F524D
:1031A0005345202337200077BE1F3F4A41434F42FB
:1031B00020233020004469173F4A41434F422023D7
:1031C0003120000BD26C3F4A41434F422023322032
:1031D000002F867A3F4A41434F4220233241002F3D
:1031E000867A3F4A41434F422023332000319423C3
:1031F0003F4A41434F422023342000F8FC203F4AFD
:1032000041434F422023352000E0BE1E3F4A414348
:103210004F422023362000AF771F3F4A41434F42A1
:103220002023333300800E433F52382054617065B1
:103230007220006A8063404552205461706572209C
:1032400000E8DE5740354320546170657220004B22
:103250006B874033432054617065722000523EA357
:103260004049542054617065722000000060406441
:0B327000AC0060AC005AAC0054AC0095
:04327C0004EC67F007
:10328000050EE66EAA0EE66E000EE66E07EC67F01F
:10329000E552E552E55204EF67F066EC22F0040EC9
:1032A000E126E66A64EC23F001E190D0010102A17D
:1032B0000AD0010101515CEC22F002910101CF051D
:1032C0000BE18A9E09D0010100515CEC22F00281E1
:1032D0000101CF0501E18A8E01010251100B05E1C8
:1032E00001010351010B01E171D0030103BF68D05B
:1032F0000301E03502E2E00769D0B2EC22F0E850C9
:1033000065E001010751020B61E13F0EF2160783F0
:10331000010102A921D003010051010B006E03013C
:103320000351200B01E0010E00180BE050EC23F0DC
:1033300003AE02D0046805680FEC23F003AE2ED074
:103340002BD057EC23F003AE02D0046805681AECCA
:1033500023F003AE23D020D003010151010B006EF6
:1033600003010451200B01E0010E00180BE050ECAA
:1033700023F003AE02D0046805680FEC23F003AE1F
:103380000DD00AD057EC23F003AE02D004680568D4
:103390001AEC23F003AE02D004680568CFEC21F0EC
:1033A000F5507F0BE76E030EE7CFDBFFDBCFE6FFC9
:1033B000020EDBCFE6FF8AEC4CF0E552E55206D078
:1033C000B2EC22F0010107930301039F040EE15CBC
:1033D00002E2E16AE552E16E6BEF22F066EC22F068
:1033E000040EE12662A602D06286629662B662860A
:1033F000C7EC7AF0D950030FE66E000EDA20E66EC5
:103400003BEC5DF0E5529FEC22F01E0EF31804E158
:10341000015002E1DAEC64F0F4EC65F0C4EC64F025
:103420000101076B0101096B01010A6B01010869C8
:10343000A5EC4CF0B0EC75F000EC7CF0A9EC5CF085
:10344000B9EC2DF0DCEC6EF097EC71F0060EE66E48
:10345000E66AE8EC73F0E552E552DF6EDF5003E018
:103460008050020B0DE1150EDF6E80B209D0E66EC2
:10347000060EE66EE66AF0EC73F0E552E552E552B0
:10348000DFCFE6FFE4EC66F0E55201010251100BDC
:1034900004E101010351010B0EE0400EC76E200E46
:1034A000C66E8B90C96A0301039FE66AE66A8AECDE
:1034B0004CF0E552E5520301E06B0101050E006F8F
:1034C00001015F0E016F010100515CEC22F00281ED
:1034D0002C6A2D6A2E6A2F6A10C127F011C128F0BC
:1034E00012C129F013C12AF030EC59F0010A1BE196
:1034F00010C12CF011C12DF012C12EF013C12FF00C
:1035000028C127F029C128F02AC129F02BC12AF0AF
:103510000CEC57F027C0CAF128C0CBF129C0CCF180
:103520002AC0CDF107D00101CA6BCB6B800ECC6FE6
:103530003F0ECD6F0101060EB16F2C6A2D6A2E6A07
:103540002F6A54C127F055C128F056C129F057C140
:103550002AF029EC59F0010A1FE060C126F061C190
:1035600027F062C128F063C129F05CEC56F0FFEC53
:1035700022F054C12CF055C12DF056C12EF057C188
:103580002FF00CEC57F027C0C6F128C0C7F129C0B6
:10359000C8F12AC0C9F107D00101C66BC76B800E04
:1035A000C86F3F0EC96FDEEC22F0EA6B0101B06B11
:1035B0000101060ECF6F01010B6BF00EF26E9D84C0
:1035C000040EE15C02E2E16AE552E16E6BEF22F08B
:1035D00066EC22F0FE0EDBCFCEF10101CE51060AE1
:1035E0001AE00D0A18E0070A16E0010A14E0030ABF
:1035F00012E00F0A10E0030A0EE0010A0CE0070ACD
:103600000AE0010A08E0050A0CE1DEEC22F0EA69B2
:103610000401B0810FD0010105810201010EEB6FA1
:1036200007D0010105810201010EEB6F0201EA6B77
:103630000401B0916BEF22F066EC22F0E652040E2A
:10364000DF6EDFCF00F02C0EE76E0018E8AE02D080
:10365000E73402D0E750005C1BE2DFCFE9FFEA6A03
:10366000E9BEEA68ADEC22F0EFCF00F0016A00BEDF
:10367000016805EC22F0FF0EE66EA90EE66E000E64
:1036800042EC23F0026E050EE15E0250DF2AD9D72C
:1036900004EC67F0040EDF6EDFCF00F02C0EE76E57
:1036A0000018E8AE02D0E73402D0E750005C23E215
:1036B000DFCFE9FFEA6AE9BEEA68ADEC22F0EFCFBE
:1036C00000F0200EE76E0018E8AE02D0E73402D01A
:1036D000E750005C09E3DFCFE9FFEA6AE9BEEA6888
:1036E000ADEC22F0EF5001D02E0EE66EFDEC66F050
:1036F000E552DF2AD1D704EC67F004EC67F0E5521D
:103700006BEF22F066EC22F0010102AB08D0CFECA7
:1037100022F0E9BEEA68ADEC22F06D0E07D0CFECE6
:1037200022F0E9BEEA68ADEC22F0220EEF6E6BEFFC
:1037300022F066EC22F01E0EE12601010551010B7C
:1037400002E1A1EF1FF0050EE66E64EC23F001E14B
:10375000F8D3190EE66EE66A050EE66E18EC76F002
:10376000E552E552E55202011B0E646F3D0E656F96
:10377000200E666F676F3F0EF216040E8FC0DBFFE0
:10378000050E90C0DBFF060E91C0DBFF070E92C056
:10379000DBFF080EAEC0DBFF090EAFC0DBFF0A0E79
:1037A000B0C0DBFF0B0EB1C0DBFF150EB6C0DBFFF8
:1037B000160EB7C0DBFF0001B66BB76BC00EF2127E
:1037C000D950150FE96EDACFEAFFEE50ED105DE04B
:1037D000150EDBCF00F0160EDBCF01F0026A036A94
:1037E00001AE02D0026803688DEC22F0270EE66E6F
:1037F000E66A1CEC64F043EC22F0C1EC2EF0E552DA
:10380000E552E552E55226C0B2F027C0B3F028C019
:10381000B4F029C0B5F0D9CFE9FFDACFEAFFEECF97
:1038200026F0EECF27F0EECF28F0EFCF29F0020EF2
:103830002B6E2C6A2D6A2E6AB9EC7DF022500001A5
:10384000B2272350B3232450B4232550B523800E30
:10385000B51504E0B26BB36BB46BB56BB2C0E6FFE9
:10386000B3C0E6FFB4C0E6FFB5C0E6FF7CEC2EF0C7
:10387000E552E55243EC22F0270EE66EE66A28ECAC
:1038800064F0046E060EE15E0450040EDBCF04F01B
:10389000050EDBCF05F0060EDBCF06F0070E35EC8C
:1038A00022F0CAC12CF0CBC12DF0CCC12EF0CDC17D
:1038B0002FF00CEC57F00C0E27C0DBFF0D0E28C0CC
:1038C000DBFF0E0E29C0DBFF0F0E2AC0DBFF080E48
:1038D000DBCF04F0090EDBCF05F00A0EDBCF06F0DC
:1038E0000B0E35EC22F0C6C12CF0C7C12DF0C8C1BB
:1038F0002EF0C9C12FF00CEC57F0100E27C0DBFFE3
:10390000110E28C0DBFF120E29C0DBFF130E2AC0E8
:10391000DBFF010102AB15D0C6EC22F00C0F0AEC64
:1039200022F0C6EC22F0100F0AEC22F0020EF36E29
:10393000140EF3CFDBFFFB0EE66EA90EE66E000E53
:103940000AD0030EF36E140EF3CFDBFFF70EE66E14
:10395000A90EE66E000E76EC22F00101CE51170A98
:1039600001E1D6D2010A01E1B7D2030A01E1AED2E8
:10397000010A01E1A5D2070A01E173D2010A01E1BE
:103980005BD2030A01E14ED21C0A01E145D2010AD1
:1039900001E13CD2070A01E11FD21B0A01E111D269
:1039A0001A0A01E1FFD1050A01E1F1D1060A01E19C
:1039B000DED1010A01E17DD10F0A01E16FD1020AD6
:1039C00001E15DD1010A01E14DD1070A01E126D1F2
:1039D000010A01E100D1030A03E0070A01E09FD2D6
:1039E000010102BD07D0F30EE66EA90EE66E000ED1
:1039F00076EC22F06AEC23F0CB0EE66EA90EE66EB2
:103A0000000E25EC23F07EEC23F0E66A050EE66E50
:103A100001010251400B01E0010EE66EE66AF3EC93
:103A20002EF0E5529FEC22F0026A036A01AE02D04A
:103A30000268036805EC22F002C0E6FF03C0E6FF5F
:103A4000680EE66E020EE66E55EC3CF0046E080E53
:103A5000E15E04500201200E6D6F83EC23F057EC01
:103A600022F0C20EE66EA90EE66E000EE66E7C0E29
:103A7000E66E020EE66EA6EC7BF0006E050EE15ED1
:103A800000500201200E846F010102AB32D0140EEF
:103A9000DBCFE6FF060EE66E7BEC22F0E9BEEA68BD
:103AA00051EC22F0EECF04F0EECF05F0EECF06F0B1
:103AB000EFCF07F0330E2C6E2D6ECB0E2E6E410E17
:103AC0002F6E04C027F005C028F006C029F007C0FB
:103AD0002AF05FEC57F0FFEC22F071EC23F02AC0E3
:103AE000E6FF4DEC43F0086E080EE15E08501F0E35
:103AF00034D0B1C1E9FFEA6AE9BEEA6851EC22F0CC
:103B0000EECF00F0EECF01F0EECF02F0EFCF03F0FA
:103B10002C6A2D6AC80E2E6E420E2F6E00C027F042
:103B200001C028F002C029F003C02AF039EC59F096
:103B3000010A08E1DEEC21F07BEC22F0E9AE08D0CE
:103B4000EA6806D0DEEC21F07BEC22F0E9BEEA6800
:103B500051EC22F0CAEC21F0200E57EC22F00301C8
:103B600004AF03D00201530E08D0030102A703D013
:103B70000201460E02D00201540E7C6FDEEC21F0F1
:103B8000870EE66E020EE66E45EC23F0CAEC21F0DD
:103B90002A0E57EC22F03D0EF36E1D0EF3CFDBFF25
:103BA000030101AD0AD0030104A502D03C0E01D0EF
:103BB0003E0EF36E1D0EF3CFDBFF0201ED5104E16B
:103BC0001D0EDBCF7BF278D10201200E7B6F1D0E24
:103BD000DBCF8FF2ACD1990EE66EA90EE66E000E29
:103BE00037EC23F0F4EC22F0170E57EC22F031EC16
:103BF00023F088C3E6FF89C3E6FF8AC3E6FF8BC3D1
:103C0000E6FF08EC23F02CEC23F08CC3E6FF8DC319
:103C1000E6FF8EC3E6FF8FC3E6FF20D1700EE66E8F
:103C2000A90EE66E000E37EC23F045EC23F0B2DB74
:103C3000170E57EC22F031EC23F0A4C3E6FFA5C326
:103C4000E6FFA6C3E6FFA7C3E6FF08EC23F02CECD3
:103C500023F0A0C3E6FFA1C3E6FFA2C3E6FFA3C310
:103C6000E6FFFCD0DAEC22F000BE0168CEDB460EA7
:103C7000E66EA90EE66E000E99EC22F058D1030113
:103C800001AD06D01D0EE66EA90EE66E000E45D102
:103C9000F40EE66EA80EE66E000E3FD1DAEC22F0CE
:103CA00000BE0168B2DBCB0EE66EA80EE66E000E1B
:103CB000CCD0030104AF55D003010151200B2BE000
:103CC0000151100B28E10301FB510CE1FCC300F092
:103CD000016A00BE016899DBA10EE66EA80EE66ED1
:103CE000000EB3D0010102AF0BD06FEC22F000BE8A
:103CF00001688BDB770EE66EA80EE66E000EA5D08F
:103D00006FEC22F000BE016880DB4D0EE66EA80E5F
:103D1000E66E000E9AD00301FB510CE1FCC300F0EB
:103D2000016A00BE016871DB230EE66EA80EE66E26
:103D3000000E8BD0010102AF0AD0D1DB00BE0168BA
:103D400064DBF90EE66EA70EE66E000E7ED0C7DBD2
:103D500000BE01685ADBCF0EE66EA70EE66E000EBF
:103D600074D0A60EE66EA70EE66E000E0ED003010E
:103D700001AB06D07D0EE66EA70EE66E000E05D0F6
:103D8000540EE66EA70EE66E000E07DB5FD0DAEC8F
:103D900022F000BE016839DB2A0EE66EA70EE66E41
:103DA000000E53D0010EE66EA70EE66E000EF5DA99
:103DB00005DB850EE66E020EE66EF4EC22F0280EB0
:103DC000B5D0DAEC22F000BE01681FDBD80EE66E3B
:103DD000A60EE66E000E39D0AF0EE66EA60EE66EAB
:103DE000000E78EC23F001E6C7DB02E2EDDA04D046
:103DF000DE6ADE6ADE6ADD6ADD52DD52E66A050EE3
:103E00005EEC23F00201200E816F91D0860EE66EEB
:103E1000A60EE66E000E81D05D0EE66EA60EE66E74
:103E2000000E7BD0C7DB00BE0168EFDA340EE66E11
:103E3000A60EE66E000E09D0BDDB00BE0168E5DA15
:103E40000B0EE66EA60EE66E000E73DB31EC23F071
:103E5000CBDB2CEC23F045EC23F0CDDBD9DB2B0EB8
:103E600065D0E30EE66EA50EE66E000E78EC23F04C
:103E700001E682DB02E2A8DA04D0DE6ADE6ADE6AEC
:103E8000DD6ADD52DD52E66A040E5EEC23F00201CB
:103E9000200E806F5AC300F05BC301F0026A036A10
:103EA00001AE02D00268036838DBE66A040ED0DA9D
:103EB0008B0EE66E020E27DB0201200E8F6F37D0CD
:103EC000BA0EE66EA50EE66E000E27D0910EE66ED7
:103ED000A50EE66E000E21D00201ED5106E1680E3E
:103EE000E66EA50EE66E000E05D03F0EE66EA50E40
:103EF000E66E000EBCDBA4C4E9FFEA6AE9BEEA682C
:103F0000BADBEF0EE926020EEA2244DA170E0ED0D3
:103F1000160EE66EA50EE66E000E3FDA08D0ED0E28
:103F2000E66EA40EE66E000E38DAEDDBC0DA0201B2
:103F3000906B640EE66E020EE66E3BEC71F0E5529D
:103F4000E5521E0EE15C02E2E16AE552E16EC3D287
:103F5000BDDA020EE12648EC67F0DF6EDF5001E1CA
:103F600009D104EC67F0DF50760A01E1EAD0490A92
:103F700001E1E7D04C0A01E178D0070A6BE01B0AA7
:103F80005AE0020A55E0040A50E00F0A06E0030A6C
:103F900001E0DAD013EC72F0E2D00BC100F0016A5C
:103FA00000BE016832DA01010851E66EE66A0101DD
:103FB0000751E66EE66A01010A51E66EE66A010102
:103FC0000951E66EE66AA10EE66EA40EE66E000EDC
:103FD00059DB026E0D0EE15E02500201A451E66E45
:103FE000E66A03010151E66EE66A03010051E66EDE
:103FF000E66A01010451E66EE66A01010251E66ECD
:10400000E66A5A0EE66EA40EE66E000E3BDB006E0C
:104010000D0EE15E0050B8C3E6FF3E0EE66EA40E44
:10402000E66E000E2FDBE55297D0E5EC7AF097D0E4
:10403000AFEC39F094D090EC67F0F350DF6EDF50C6
:10404000816E8150E66EE66A300EE66EA40EE66E74
:10405000000E09D060C0E6FF61C0E6FF260EE66EE6
:10406000A40EE66E000E57DA7AD0E66A010EE66E0E
:10407000F3EC2EF0E552E55201010551E66EE66AD9
:10408000120EE66EA40EE66E000E45DAFAC300F0DC
:10409000016A00BE0168B9D9CFC102F0036A02BE4D
:1040A000036802C0E6FF03C0E6FF000EE66EA40E42
:1040B000E66E000EE7DA046E070EE15E04500301BF
:1040C0000451E66EE66A03010351E66EE66AE00E0D
:1040D000E66EA30EE66E000E6ADA00019951E66EF6
:1040E000E66ACF0EE66EA30EE66E000E14DA010E3F
:1040F000DB6ADBCF00F0040EE76E0018E8AE02D0FA
:10410000E73402D0E750005C15E2010EDBCFE9FF97
:10411000EA6AE9BEEA68AFDA130EE926030EEA227C
:104120006ADAC80EE66EA30EE66E000E40DA010EE5
:10413000DB2ADFD7C60EE66EA30EE66E000EA2DA0D
:104140000BD03EEC19F00BD0C10EE66EA30EE66E5E
:10415000000EE66E07EC67F0E552E552E55248ECDA
:1041600067F00009FCE104EC67F03E0EE66EFDEC42
:1041700066F0E552020EE15C02E2E16AE552E16EB0
:10418000AAD1A4D9200EE126E66EE66AFC0EDBCFAA
:10419000E6FFFD0EDBCFE6FFFE0EDBCFE6FFD5D957
:1041A000200EE66EE66AF90EDBCFE9FFEA6AE9BEA9
:1041B000EA68030EEA02F3CFEAFFE902F3CFE9FF70
:1041C000F450EA26E70EE926000EEA22A4DABDD969
:1041D000FA0EDBCFE9FFFB0EDBCFEAFFF90EDBCFF8
:1041E000EFFF200EE15C02E2E16AE552E16E73D17D
:1041F000EEEC19F05EEC00F061EC00F064EC00F025
:1042000068EC00F001010251200B01E0010EE66EA6
:1042100055EC6DF0E5523EEC19F0BCEC75F04DEC50
:1042200019F005EC7CF061EC5DF099EC33F090DE78
:104230000101CF51060A01E197D0030A01E189D0BB
:10424000010A6CE0070A5BE0010A46E0030A14E099
:10425000010AE3E101010B0501E10B6B01010751CB
:10426000010B70E1010E0101081501086BE101016C
:10427000B0515CE1040E7DD0B2D91FE101010B51B8
:104280001CE00B0506E10B6B010107818A8E030E12
:1042900070D0040E0B5D03E10B6B8A9E69D0050E96
:1042A0000B5D09E10B6B010107810101099101011E
:1042B0000A818A8E2CD00B6BB0D797EC6DF099ECFD
:1042C0001BF013EC03F0030100AB02D0F1EC6EF035
:1042D0000101B051A2E010D082D909E1030E010121
:1042E0000B5D05E10B6B8A9EFEEC26F01DD056ECB3
:1042F00006F00101B05191E000013F0E19D001011B
:104300000A5102E1000E01D0010E010802E1E66A45
:1043100031D0A7EC27F099EC1BF07FD760D912E1E0
:104320000101B05103E18A9E010E23D000015F0E0E
:10433000FC6F8A8C8A9EB0C1E6FFE8EC1AF0E55269
:10434000050E17D0CEEC27F099EC1BF09FEC02F095
:1043500064D7B6EC09F099EC1BF00101B05101E013
:104360005CD78A9C060E05D0FEEC26F08A9E8A9CBD
:10437000020EE66ECF0EE66E010EE66EE4C0E6FFBC
:10438000E5C0E6FFE6C0E6FFFCDE006E060EE15E7D
:10439000005043D730D908EF23F057D97CD10050D3
:1043A0000324F36E01500420F46E02500520F86ED1
:1043B000F4CFF7FFF3CFF6FF08001200140EDBCFA7
:1043C000E6FF070EE66E1200800E006E4F0E016EC5
:1043D000120E026E036A00C026F001C027F0286E9C
:1043E00003C029F054C32BF055C32CF056C32DF055
:1043F00057C32EF0F2EC57F026C0DEFF27C0DEFFD9
:1044000028C0DEFF29C0DDFF120000C0E6FF01C0AA
:10441000E6FF1200E96EDACFEAFFEECF27F0EECF2B
:1044200028F0EECF29F0EFCF2AF000C02CF001C029
:104430002DF002C02EF003C02FF05FEC57F02AC021
:10444000EDFF29C0EDFF28C0EDFF27C0EFFF1200F0
:10445000E66ED9CFE9FFDACFEAFFFBEF22F0026E7A
:10446000DFC303F0046A056A1200DBCF07F004C063
:1044700026F005C027F006C028F007C029F05CEC44
:1044800056F0FFEF22F0E552E55226C000F027C0BB
:1044900001F028C002F029C003F026C0E6FF71EF4A
:1044A00023F0E9D80C0EE926010EEA221200E66E8E
:1044B00082EC1BF0E5521200E66EE66AE66A18EC42
:1044C00076F0E552E552E55201011200D9CFE6FF40
:1044D000E1CFD9FF1200E552E7CFD9FF1200030167
:1044E000FB510301FC25006E016A1200E66EF2D852
:1044F0000BEC75F0D0D07D0EE66E020EE66EB1C10B
:10450000E9FFEA6A1200E66E55EC3CF0006E080E18
:10451000E15E00501200B6D8BED000C0DFFF010E31
:1045200001C0DBFF020E02C0DBFF030E03C0DBFF96
:1045300012008BD8026E070EE15E02501200E552A7
:10454000F3CF00F0F4CF01F01200D9CFE6FFDACFBD
:10455000E6FF59EC75F07EEF23F0640EE926020EBB
:10456000EA221200110EE66EE66A25EC64F0E552CE
:10457000E5520301E06F1200D880000E5455000E82
:104580005555000E5655000E57551200330E006E4D
:10459000016ECB0E026E410E036ED9501200FE0E5C
:1045A000DBCFF3FFDB2AF350E96EEA6A12006AD828
:1045B0007EEF23F0FBC300F0016A120001010591B8
:1045C0000201010EEB6F02011200880EE66E020E70
:1045D000E66E1200740EE66E020EE66E1200050E16
:1045E0000101091505081200D9500C0FE96EDACF48
:1045F000EAFFCAEF21F0EECFE6FF8BEF23F027C0F2
:1046000000F028C001F029C002F02AC003F0120017
:104610004DEC43F0006E080EE15E00501200BFDE6C
:10462000020EF5CFDBFF520E006EFB0E016E000E88
:104630002FEF22F0B4DE020EF5CFDBFF120E006E7C
:10464000FB0E016E000E2FEF22F0E66E680EE66E96
:10465000020EE66EA6EF7BF0200E29DFAFDEE5EF5F
:1046600022F0ACDE7D0EE66E020EE66E120095DEE6
:10467000A5DEEAEF22F0D890E936EA36D890E9369E
:10468000EA361200E66E9FEF7CF0D950100FE96E0B
:10469000DACFEAFF1200006E050EE15E0050120054
:1046A000320E006EFB0E016E000E2FEF22F0F20EA6
:1046B000006EFA0E016E000E2FEF22F0C9DE7C0EA6
:1046C000E66E020E83EF22F007EC76F038DFF3504F
:1046D000F4101200D950190FE66E000EDA20E66EC3
:1046E000120027C0E6FF28C0E6FF29C0E6FF12003F
:1046F00054DE03015735000E57191200006E070EE5
:10470000E15E005012005ADE730EE66E020EE66E97
:104710006BDF160E1200EECFE6FFEECFE6FFEFCF17
:04472000E6FF12009E
:0C472400E5EC2BF0FE0EDBCFF9F371EF9B
:104730002DF0E5EC2BF0080EE126030101AD76D05B
:104740008F0EE96E000EEA6EEE5003017C5D006E86
:10475000EE507D59016EEE507E59026EEE507F593B
:10476000036E00C026F001C027F002C028F0296EB9
:104770005CEC56F017EC2DF039EC59F0010A06E12B
:1047800008EC2BF003EC2DF0BFEC2BF0190ED1EC64
:104790002CF06EEC2BF0FBEC2AF0D3EC2BF07EEC43
:1047A0002DF039EC59F0010A06E1FBEC2AF003EC9C
:1047B0002DF0EAEC2BF0006A016A026A400E036EEB
:1047C000D950040FE96EACEC2BF00CEC57F060EC18
:1047D0002CF0FBEC2AF0D9CFE9FFACEC2BF05FEC2E
:1047E00057F060EC2CF0C0EC2CF006E01D0ED5EC80
:1047F0002CF011EC2CF002D0D8EC2BF0C4EC2CF007
:10480000E552E5525CEC56F027EC2BF0F7EC2BF080
:1048100004C02CF005C02DF006C02EF007C02FF00C
:1048200076EC56F0F2EC58F069EC2CF094C326F0DC
:1048300095C327F096C328F097C329F0080EE15CD2
:1048400002E2E16AE552E3EF2BF01200E5EC2BF017
:10485000140EE126030101B925D070C32CF071C3F9
:104860002DF072C32EF073C32FF042EC2BF05FECEF
:1048700057F02DEC2DF078C32CF079C32DF07AC3CE
:104880002EF07BC32FF01CEC2CF04AEC2BF076ECD6
:1048900056F075EC2DF0EEEC6AF092EC2DF026EC73
:1048A0002CF00BD070C3DFFF010E71C3DBFF020ED3
:1048B00072C3DBFF030E73C3DBFFF7EC2BF072EC6C
:1048C0002CF09DEC2CF07BEC2BF05CEC56F027C030
:1048D0000CF028C00DF029C00EF02AC00FF072ECC9
:1048E0002CF03EEC2BF07BEC2CF0E7CF0FF0E552F8
:1048F000E7CF0EF0E552E7CF0DF0E552E7CF0CF031
:104900007BEC2BF026C010F027C011F028C012F06D
:1049100029C013F015EC2BF00CC027F00DC028F0C7
:104920000EC029F00FC02AF00CEC57F04AEC2BF027
:104930005BEC2DF06EEC2BF00301B8A707D058EC20
:104940002DF082EC2DF098EC2BF006D058EC2DF0E9
:1049500082EC2DF004EC2CF0976F140EE15C02E277
:10496000E16AE552E3EF2BF0E5EC2BF0120EE126C5
:104970001B0E85EC2DF031EC2CF0350E2C6EFA0E62
:104980002D6E8E0E2E6E3C0EA5EC2CF069C328F019
:104990006AC329F06BC32AF05FEC57F075EC2DF079
:1049A000AAEC61F0E552E55231EC2CF00301FB6B0F
:1049B000FE6BFF6BFD6B0301706B716B726B736B46
:1049C000786B796B7A6B7B6B6C6B6D6B6E6B6F6BF3
:1049D000B06BB16BB26BB36BB46BB56BB66BB76BE3
:1049E0001E0EF2EC2CF015E10301FB2B1E0ED1EC98
:1049F0002CF026C070F327C071F328C072F329C0D1
:104A000073F37FEC2CF026C027F060EC2DF03CEC2B
:104A10002CF01E0EDBEC2AF088EC2CF0220EDFECE2
:104A20002CF039EC59F0010A01E0D9D0200EF2EC5B
:104A30002CF00DE1200ED1EC2CF026C0B4F327C0F1
:104A4000B5F328C0B6F329C0B7F30301FB2B1F0E43
:104A5000F2EC2CF001E0C3D0220ED1EC2CF08FEC64
:104A60002BF088EC2CF01E0ED1EC2CF07BEC2BF014
:104A700026C008F027C009F028C00AF029C00BF0B2
:104A800015EC2BF036EC2DF075EC56F075EC2DF0A6
:104A9000200E85EC2DF0E5EC2AF01CEC2DF067ECF7
:104AA0002DF017EC2DF0A9EC2CF001E08FD078EC74
:104AB0002DF01F0EDFEC2CF00CEC57F0EAEC2BF095
:104AC000040EDBCF27F0050EDBCF28F0060EDBCF80
:104AD00029F0070EDBCF2AF0C3EC58F0100E28C0E7
:104AE000DBFF110E29C0DBFFFBEC2AF0100EDBCF41
:104AF00028F0110EDBCF29F047EC56F030EC2BF00C
:104B000067EC2DF0080E27C0DBFF090E28C0DBFF85
:104B10000A0E29C0DBFF0B0E2AC0DBFF100EDBCF15
:104B2000FEF3110EDBCFFFF3080EDBCF00F0090E12
:104B3000DBCF01F00A0EDBCF02F00B0EDBCF03F070
:104B40001EEC2BF01F0EDFEC2CF05FEC57F027C0B3
:104B50006CF328C06DF329C06EF32AC06FF327C031
:104B6000B0F328C0B1F329C0B2F32AC0B3F3170ED3
:104B70002C6EB70E2D6ED10E2E6E380E2F6EA9EC48
:104B80002CF024E10301010EFD6F200EDBEC2AF076
:104B90006CC32CF06DC32DF06EC32EF06FC32FF0DD
:104BA00089EC2DF013E1200ED1EC2CF026C0B0F3EF
:104BB00027C0B1F328C0B2F329C0B3F36CC3B4F378
:104BC0006DC3B5F36EC3B6F36FC3B7F3FDC300F0A7
:104BD000016A00BE016800500301FE25FB27210E7B
:104BE000E66EE66A25EC64F0E552E5520301FC6FDF
:104BF000120EE15C02E2E16AE552E3EF2BF0E5EC34
:104C00002BF0080EE1260301F951060A61E0030AC0
:104C10005BE0010A31E0060A22E0010A11E0030A22
:104C200057E1A2DE0301030EF96FD3EC2BF042EC47
:104C30002BF029EC59F0010A4BE10301030EF96F47
:104C4000FE51FF1103E1020EF96F09D0FE07000EBD
:104C5000FF5B1F0EDBEC2AF015EC2BF028D0040EC6
:104C6000F96FFD5109E0B0C32CF0B1C32DF0B2C310
:104C70002EF0B3C32FF01BD0050EF96FD3EC2BF041
:104C8000B4C327F0B5C328F0B6C329F0B7C32AF0E0
:104C900029EC59F0010A03E10301FB6B15D0B4C301
:104CA0002CF0B5C32DF0B6C32EF0B7C32FF042ECF5
:104CB0002BF076EC56F027C070F328C071F329C0B2
:104CC00072F32AC073F304D0FC5102E1060EF96FAF
:104CD000060E0301F95D01E18AD09DEC2CF05CEC3D
:104CE00056F03FEC2DF03EEC2BF07BEC2CF0E7CFB8
:104CF0000BF0E552E7CF0AF0E552E7CF09F0E552B5
:104D0000E7CF08F01CEC2DF008C027F009C028F010
:104D10000AC029F00BC02AF00CEC57F030EC2BF055
:104D200042EC2BF05BEC2DF026EC2CF07FEC2CF021
:104D300042EC2BF03CEC2CF010C12CF011C12DF00A
:104D400012C12EF013C12FF028C127F029C128F07D
:104D50002AC129F02BC12AF00CEC57F030EC2BF0D3
:104D60001CEC2CF027EC2BF0CAEC2BF06EEC2BF0AB
:104D7000FE0EDB503AE10301B8A707D078EC2DF026
:104D800082EC2DF098EC2BF006D078EC2DF082EC34
:104D90002DF004EC2CF0976F030102A10FD08EECE4
:104DA0002DF00050262403017C6F015027207D6FD9
:104DB000025028207E6F0350292015D08EEC2DF054
:104DC00000010050265C03017C6F00010150275850
:104DD00003017D6F00010250285803017E6F00011E
:104DE0000350295803017F6F02D04EEC2BF0080EC0
:104DF000E15C02E2E16AE552E3EF2BF00301FA6BBA
:104E0000F96B0301B88301010881010109810101E6
:104E10000A910301B895C0EC2CF00CE00E0E97EC53
:104E20002DF027C088F328C089F329C08AF32AC04F
:104E30008BF30BD00E0ED1EC2CF026C088F327C0DC
:104E400089F328C08AF329C08BF34EEC2BF0C0EC19
:104E50002CF00CE00F0E97EC2DF027C08CF328C03F
:104E60008DF329C08EF32AC08FF30BD00F0ED1EC37
:104E70002CF026C08CF327C08DF328C08EF329C0F8
:104E80008FF35AEC2BF0C0EC2CF006E01D0ED5ECA5
:104E90002CF011EC2CF002D0D8EC2BF0C4EC2CF060
:104EA000E552E55269EC2CF0C0EC2CF00CE01C0E45
:104EB00097EC2DF027C0A0F328C0A1F329C0A2F3DE
:104EC0002AC0A3F30BD01C0ED1EC2CF026C0A0F30B
:104ED00027C0A1F328C0A2F329C0A3F3A0C3E6FF13
:104EE000A1C3E6FFA2C3E6FFA3C3E6FFC1EC2EF019
:104EF00092EC2DF026C090F327C091F328C092F3D6
:104F000029C093F3270EE66EE66A2AEC64F0E552B8
:104F1000E5521200E5EC2BF04CEC2CF0E66AFC0EAE
:104F2000DBCFE6FFFD0EDBCFE6FFE66AE66AE66A68
:104F3000E66AFE0EDBCFE6FF26EC2DF00301B89308
:104F4000010108910301010EFA6F71EF2DF00101CB
:104F50000AB120D00301B8813F0EF2160301049379
:104F600082DB0101099101010A810301B851040B9F
:104F700001E0010E006E03010451800B01E0010EFF
:104F8000005C08E004510301B895800B01E0B8858E
:104F90000301FA6B1200010107911200E5EC2BF0FE
:104FA000030EE12601010751010B0EE10301B85187
:104FB000020B0AE0010109B1F8D201010A910101D5
:104FC000098101010881F1D20301FA510D0A01E1C1
:104FD000CAD2010A01E134D2070A01E125D2010A4D
:104FE00001E100D2030A01E1E0D10C0A01E19ED106
:104FF0000D0A01E163D10F0A01E155D1010A01E176
:10500000FED0020A01E1C8D0070A01E1B8D0010AC6
:1050100001E17FD0030A6CE0010A01E0C6D203017E
:10502000B8A1C3D2B891B8837C0EE96E030EEA6EC4
:10503000EE50801910E1EE5081190DE1EE50821909
:105040000AE1EE50831907E106E101010791010130
:10505000170EB06F95D20101070ECE6F0A0E7BECD2
:105060002DF03F0EF216AEC0C2F1AFC0C3F1B0C01A
:10507000C4F1B1C0C5F1F7DAC20EE96E010EEA6EF5
:10508000EE500301901908E1EE50911905E1EE5040
:10509000921902E1EE50931919E0030101A9F9D127
:1050A000020E36DBF3CFBBF3F4CFBCF303DB03011B
:1050B000B8930101100ECE6FE66ABBC3E6FFBCC316
:1050C000E6FFF6EC2CF001E0CDD10FD08CEC2CF00B
:1050D0007C190BE1EE507D1908E1EE507E1905E1D7
:1050E000EE507F1902E101E15AD20301020E59D2BA
:1050F00003010451020B01E058D203010351020BDA
:1051000001E053D20101B05101E0ACD198EC2CF098
:105110004AD2030104B349D20101B05101E0A2D146
:10512000000E0301E76EFB19E8AE02D0FB3503D099
:10513000E750D880FB5501E27ED1800EE96E030E68
:10514000EA6EEE5003017C190EE1EE507D190BE181
:10515000EE507E1908E1EE507F1905E104E1B883B5
:105160000101070ED4D00CEC2DF090DA000901E01B
:1051700079D10301B8930101070ECE6F10D203015C
:105180000351020B01E011D20351010B01E00DD2DA
:105190007EDB01E0F1D1B9D00101B05101E062D173
:1051A000030101A919D0020EB3DA80DB94C3E6FF34
:1051B00095C3E6FF96C3E6FF97C3E6FF010EE66ED2
:1051C00065DA000901E04ED10301B89301010F0E29
:1051D000CE6F0301060EE5D13F0EF21694C3AEF07A
:1051E00095C3AFF096C3B0F097C3B1F00301048349
:1051F000C00EF2129DDB0101090ECE6F8DD00301AE
:1052000004B3D3D144DB01E0B9D1020E02C3DBFF0A
:10521000030101AD4ED0010EDB6A020E02C3DBFFBB
:10522000DF6ADFCF00F0030EE76E0018E8AE02D0B1
:10523000E73402D0E750005C15E2020EDB50010BB0
:10524000006E010EDBCFE7FF0050E726010EE7CF2F
:10525000DBFF020EDBCFF3FFF390F342F3CFDBFF74
:10526000DF2ADFD7010EDBB024D0E668E66A03014F
:105270000251020B020A01E0010EE66EBBC3E6FF1B
:10528000BCC3E6FFE66AE66AE66AE66A010EE66E17
:1052900080EC30F0006E0A0EE15E00500301B8931E
:1052A0000301070E7ED1030104B37FD1F0DA01E0E0
:1052B00065D10101060ECE6F030153D1000EE76EDA
:1052C000FB19E8AE02D0FB3503D0E750D880FB5580
:1052D0000BE3000EE76EFC19E8AE02D0FC3503D0FC
:1052E000E750D880FC551BE2AE0EE96E000EEA6E68
:1052F000EE500301941908E1EE50951905E1EE50C6
:10530000961902E1EE50971906E00101060ECE6FE4
:105310000301040E46D1B8930301050E42D1010EDC
:10532000FC6F06DB0101110ECE6F3DD1B1DB08E150
:10533000EE507D1905E1EE507E1902E1EE507F1925
:1053400002E0B88330D101010551400B04E10101B5
:105350000251800B24E00101B05101E083D0030130
:10536000B8930B0EC8DB010102AF02D0DBDA05D027
:10537000010EE66E000EE66EE66A80C3E6FF81C3AC
:10538000E6FF82C3E6FF83C3E6FFE66A7FD90050EB
:1053900069E10101080ECE6F0301090E02D1DDDAC9
:1053A00003010493C00EF21217D003010351010B45
:1053B00007E10351020B04E16ADA01E0DDD066D0B7
:1053C00001010551400B01E0F0D001010251800BB9
:1053D00001E0EBD061DAACDA01010B0ECE6F010116
:1053E000B06FE1D0030101A90AD0020E91D95EDAB3
:1053F000FDDA38E10301B8930101100E11D0030169
:1054000004830301B891A9DA90C3AEF091C3AFF061
:1054100092C3B0F093C3B1F0C00EF21201010A0EB4
:10542000CE6F03010B0EBDD0030104B3BED001014A
:10543000B05101E0A1D00301B88303010C0EB1D03B
:105440000301B851010B0BE103018EDAE8AE02D083
:10545000003403D0E750D880005401E379D0010133
:10546000B05103E00301B88387D0AE0EE96E000EA1
:10547000EA6EEE500301901908E1EE50911905E132
:10548000EE50921902E1EE50931906E00101080E68
:10549000CE6F03010A0E85D00A0E2DDB030104AF87
:1054A00046D0000E0301E76EFB19E8AE02D0FB35D3
:1054B00003D0E750D880FB5511E2FB07000EE76EE2
:1054C000FB19E8AE02D0FB3503D0E750D880FB557E
:1054D00002E3000E01D0FB51FB6F1BD0000EE76E04
:1054E000FC19E8AE02D0FC3503D0E750D880FC555B
:1054F00010E2FC07000EE76EFC19E8AE02D0FC35A6
:1055000003D0E750D880FC5502E3000E01D0FC51D7
:10551000FC6F03010151200B01E0010EE66EFFEC70
:1055200025F0E552030101AB02D026EC24F074DA39
:105530008DDA030104BF03D00301FB6BFC6B030195
:10554000B891B8930101070ECE6F03010D0E29D05B
:105550000BDAE8AE02D0003403D0E750D880005414
:1055600024E3080E1ED003010351010B1EE1035179
:10557000020B1BE18CD907E0010107910301FA6BD3
:10558000B0C1CEF112D084DA0EE1EE507D190BE1FC
:10559000EE507E1908E1EE507F1905E104E10301A8
:1055A000030EFA6F02D00301FA6B030EE15C02E214
:1055B000E16AE55208D1F5D926C000F027C001F014
:1055C00028C002F029C003F01200E552E552E5526E
:1055D000E7CF03F0E552E7CF02F0E552E7CF01F065
:1055E000E552E7CF00F0120001C028F002C029F018
:1055F00003C02AF01200040EDBCF00F0050EDBCF53
:1056000001F0060EDBCF02F0070EDBCF03F0120035
:10561000D9CFE9FFDACFEAFFEECF00F0EECF01F00D
:10562000EECF02F0EFCF03F0120026C02CF027C01F
:105630002DF028C02EF029C02FF0120000C0E6FF88
:1056400001C0E6FF02C0E6FF03C0E6FF120027C06C
:1056500000F028C001F029C002F02AC003F01200B7
:10566000FCD94FEF2DF08FC0BEF190C0BFF191C0BB
:10567000C0F192C0C1F1C00EF21212002BDA2AC0A2
:10568000E6FF120070C327F060EF2DF0DFD90101B3
:10569000B06F1200F4D903DA36EF2DF096D9E55247
:1056A000E55226C07CF327C07DF328C07EF329C0D5
:1056B0007FF312008CC3E6FF8DC3E6FF8EC3E6FFC7
:1056C0008FC3E6FF65EC2EF02DDA26C080F327C0ED
:1056D00081F328C082F329C083F31200040E26C090
:1056E000DBFF050E27C0DBFF060E28C0DBFF070E21
:1056F00029C0DBFF1200E552E7CF07F0E552E7CF04
:1057000006F0E552E7CF05F0E552E7CF04F01200CE
:10571000E66EE66A1EEC64F0E552E552120026C021
:1057200004F027C005F028C006F029C007F01200D9
:1057300000010050265C0301946F000101502758BE
:105740000301956F0001025028580301966F000174
:105750000350295803011200DACFEAFFEECF27F0F9
:10576000EECF28F0EECF29F0EFCF2AF000C02CF0DA
:1057700001C02DF002C02EF003C02FF0120027C090
:10578000DEFF28C0DEFF29C0DEFF2AC0DDFFDD52BC
:10579000DD5212002C6A2D6A2E6A3F0E2F6E76ECB7
:1057A00056F0F2EF58F02C6A2D6A2E6A2F6A12001A
:1057B0001D0EF7D826C0A4F327C0A5F328C0A6F372
:1057C00029C0A7F31200E16E8CD1D9CFE6FFE1CF5B
:1057D000D9FF1200040E27C0DBFF050E28C0DBFF37
:1057E000060E29C0DBFF070E2AC0DBFF1200D9CF4F
:1057F000E9FFDACFEAFFEECF04F0EECF05F0EECF0F
:1058000006F0EFCF07F01200005026240301946F3A
:1058100001502720956F02502820966F03502920B1
:1058200012005FEC57F027C0A4F328C0A5F329C0ED
:10583000A6F32AC0A7F3120078C327F079C328F093
:105840007AC329F07BC32AF05FEF57F026C0DEFF52
:1058500027C0DEFF28C0DEFF29C0DDFFDD52DD529C
:105860001200E552E55226C068F327C069F328C04C
:105870006AF329C06BF312005FEC57F027C078F38E
:1058800028C079F329C07AF32AC07BF31200030100
:10589000B8830101B0511200E66A72EC33F0E552B0
:1058A000010EE66E72EC33F0E5521200F3CFBBF35B
:1058B000F4CFBCF3E66AF3CFE6FFF4CFE6FF1200C5
:1058C0002AC0EDFF29C0EDFF28C0EDFF27C0EFFF84
:1058D000120026C094F327C095F328C096F329C080
:1058E00097F3120004C0E6FF05C0E6FF06C0E6FF1E
:1058F00007C0E6FF1200120E54D8E552120068C32A
:105900002CF069C32DF06AC32EF06BC32FF0120088
:1059100026C0E6FF6AEF2DF0BE0EE96E010EEA6EBC
:10592000EE501200E66AB9C3E6FFBAC3E6FF120002
:105930000301B883010107911200150EE66EE66AB5
:105940001DEC64F0E552E55212002F6E26C027F0E0
:10595000120030EC59F0010A120001010791030115
:10596000B8833F0EF2161200FB51FC25006E000EAC
:10597000E76E00181200F3CFB9F3F4CFBAF31200B8
:1059800001010251200B1200A4C3E6FFA5C3E6FFEC
:10599000A6C3E6FFA7C3E6FFC1EC2EF0E552E55231
:1059A0001200B3D8E552E552120005DE330E2C6E1C
:1059B0002D6ECB0E2E6E410EC8DFF4EF2AF0A5D867
:1059C00004DEADDE32DE7EEF2DF088C3E6FF89C354
:1059D000E6FF8AC3E6FF8BC3E6FF65EC2EF0E552D7
:1059E000E5521200E8DDDFDE89EF2DF090C3E6FF1F
:1059F00091C3E6FF92C3E6FF93C3E6FF010EE66E96
:105A000045DE000912002C6A2D6A800E2E6EBF0E34
:105A10002F6E74D85FEF57F085DF7CC3E6FF7DC340
:105A2000E6FF7EC3E6FF7FC3E6FFE66A1200A7DE5D
:105A3000EFDDB9DE7EEF2DF026C00CF027C00DF0B3
:105A400028C00EF029C00FF015EF2BF0FAEC31F062
:105A5000006E080EE15E0050120027C004F028C05E
:105A600005F029C006F02AC007F0120004C027F094
:105A700005C028F006C029F007C02AF0120027C090
:105A800008F028C009F029C00AF02AC00BF0120063
:105A90003F0EF216E8DD40DF03017C19120027C03B
:105AA0002CF028C02DF029C02EF02AC02FF01200B3
:105AB000A2DD1EEF2BF05FEC57F0C9DDCAEF2BF033
:105AC00071C328F072C329F073C32AF0120016D8EC
:105AD00075EF56F027C0E6FF28C0E6FF29C0E6FFB5
